:100000000C942A000C943C000C943C000C943C0092
:100010000C943C000C943C000C943C000C943C0070
:100020000C943C000C943C000C943C000C943C0060
:100030000C943C000C943C000C943C000C943C0050
:100040000C943C000C943C000C943C000C943C0040
:100050000C943C0011241FBECFE5D8E0DEBFCDBF1D
:1000600020E0A0E6B0E001C01D92A036B207E1F7A3
:100070000E9478010C9493010C940000CF93DF93BD
:10008000CDB7DEB782E590E0FC01108283E590E019
:1000900023E530E0F90120812560FC012083000088
:1000A000DF91CF910895CF93DF9300D000D0CDB7EB
:1000B000DEB79C838B8382E590E0FC0110828CE5A7
:1000C00090E026E7FC01208388E590E022E0FC0137
:1000D00020831A821982000088E590E0FC0180816B
:1000E000882F90E082709927892BB1F382E590E008
:1000F000FC01108288E590E022E0FC0120838981E8
:100100009A8101969A83898329813A818B819C8186
:100110002817390708F4DFCF00000F900F900F90D9
:100120000F90DF91CF910895CF93DF93CDB7DEB7D6
:1001300087E390E02FEFFC0120830000DF91CF9157
:100140000895CF93DF9300D000D0CDB7DEB71A82E9
:1001500019821BC088E390E029813A81220F331F66
:10016000A9014F5F5F4F21E030E002C0220F331F33
:100170004A95E2F7FC0120838AE090E00E94530058
:1001800089819A8101969A83898389819A810497CA
:100190000CF31C821B821CC088E390E02B813C8105
:1001A000220F331F47E050E0421B530B21E030E0A9
:1001B00002C0220F331F4A95E2F7FC0120838AE038
:1001C00090E00E9453008B819C8101969C838B83DD
:1001D0008B819C81049704F388E390E0FC011082FA
:1001E00000000F900F900F900F90DF91CF91089526
:1001F000CF93DF9300D000D0CDB7DEB71A8219823B
:1002000019C088E390E029813A81A901440F551F64
:1002100021E030E002C0220F331F4A95E2F7FC01D3
:1002200020838AE090E00E94530089819A810196A0
:100230009A83898389819A8104971CF31C821B828B
:100240001FC088E390E044E050E02B813C81BA017C
:10025000621B730B9B01A901440F551F21E030E085
:1002600002C0220F331F4A95E2F7FC0120838AE087
:1002700090E00E9453008B819C8101969C838B832C
:100280008B819C810497ECF288E390E0FC01108262
:1002900000000F900F900F900F90DF91CF91089575
:1002A000CF93DF9300D0CDB7DEB71A82198216C084
:1002B00088E390E02FEFFC0120838AE090E00E9429
:1002C000530088E390E0FC0110828AE090E00E94F5
:1002D000530089819A8101969A83898389819A81C1
:1002E0000A9734F300000F900F90DF91CF9108959B
:1002F000CF93DF93CDB7DEB70E943E000E949400FB
:100300000E94A10084E690E00E9453000E94F80041
:1003100084E690E00E9453000E94500186E497E139
:0A0320000E945300FFCFF894FFCFB6
:00000001FF
