:100000000C943B000C9458000C9458000C9458002D
:100010000C9458000C9458000C9458000C94580000
:100020000C9458000C9458000C9458000C945800F0
:100030000C9458000C9458000C9458000C945800E0
:100040000C9458000C9458000C9458000C945800D0
:100050000C945800F901FB01FD01FF0101020302AC
:100060000502070209020B020F0211021302150218
:10007000170217020D0211241FBECFE5D8E0DEBF24
:10008000CDBF10E0A0E6B0E0EEE2FCE002C00590DB
:100090000D92A637B107D9F720E0A6E7B0E001C07E
:1000A0001D92AA37B207E1F70E942C050C941506A1
:1000B0000C940000CF93DF9300D000D0CDB7DEB713
:1000C0009C838B8382E590E0FC0110828CE590E0BC
:1000D0002CE0FC01208388E590E022E0FC012083F5
:1000E0001A821982000088E590E0FC018081882F47
:1000F00090E082709927892BB1F382E590E0FC01B2
:10010000108288E590E022E0FC01208389819A81B9
:1001100001969A83898329813A818B819C81281752
:10012000390708F4DFCF00000F900F900F900F9069
:10013000DF91CF910895CF93DF9300D000D0CDB75A
:10014000DEB79C838B838CE490E0FC0111821082EB
:100150008AE490E027EC3DE2FC013183208388E5CE
:1001600090E022E0FC0120831A821982000088E5D9
:1001700090E0FC018081882F90E080719927892B85
:10018000B1F382E590E0FC01108288E590E020E187
:10019000FC01208389819A8101969A838983298130
:1001A0003A818B819C812817390708F4DFCF000042
:1001B0000F900F900F900F90DF91CF910895CF93F4
:1001C000DF9300D000D0CDB7DEB71A8219821BC0F2
:1001D00088E390E029813A81220F331FA9014F5F04
:1001E0005F4F21E030E002C0220F331F4A95E2F753
:1001F000FC01208384E690E00E945A0089819A8164
:1002000001969A83898389819A8104970CF31C82D1
:100210001B821CC088E390E02B813C81220F331F9E
:1002200047E050E0421B530B21E030E002C0220FB8
:10023000331F4A95E2F7FC01208384E690E00E9498
:100240005A008B819C8101969C838B838B819C813E
:10025000049704F388E390E0FC01108200000F9003
:100260000F900F900F90DF91CF910895CF93DF9370
:1002700000D000D0CDB7DEB71A82198219C088E34A
:1002800090E029813A81A901440F551F21E030E017
:1002900002C0220F331F4A95E2F7FC01208384E657
:1002A00090E00E945A0089819A8101969A838983FD
:1002B00089819A8104971CF31C821B821FC088E3EA
:1002C00090E044E050E02B813C81BA01621B730B4B
:1002D0009B01A901440F551F21E030E002C0220F0D
:1002E000331F4A95E2F7FC01208384E690E00E94E8
:1002F0005A008B819C8101969C838B838B819C818E
:100300000497ECF288E390E0FC01108200000F906B
:100310000F900F900F90DF91CF910895CF93DF93BF
:1003200000D0CDB7DEB71A82198216C088E390E0FC
:100330002FEFFC01208384E690E00E945A0088E3BE
:1003400090E0FC01108284E690E00E945A008981CE
:100350009A8101969A83898389819A810A9734F3D5
:1003600000000F900F90DF91CF910895CF93DF930E
:1003700000D0CDB7DEB71A82198216C088E390E0AC
:1003800025E5FC01208380E590E00E945A0088E387
:1003900090E0FC01108280E590E00E945A00898183
:1003A0009A8101969A83898389819A81049734F38B
:1003B00000000F900F90DF91CF910895CF93DF93BE
:1003C0001F92CDB7DEB789838981882F90E0092EEF
:1003D000000CAA0BBB0B40E050E020E130E0841B96
:1003E000950B2817390718F1865D9F4FFC010C9477
:1003F0000F0680E01DC081E01BC082E019C084E0D0
:1004000017C088E015C080E113C080E211C080E40D
:100410000FC080E80DC081E80BC080E109C083E017
:1004200007C08CE005C080E303C080EC01C080E021
:100430000F90DF91CF910895CF93DF93CDB7DEB7C3
:1004400088E390E025E5FC01208388E790E00E94A6
:100450009B0088E390E0FC0110820000DF91CF91C7
:100460000895CF93DF9300D01F92CDB7DEB7898375
:100470007B836A838A819B818130944020F083E072
:10048000809376001AC000008CE390E0FC0180812C
:10049000882F90E082709927892BB1F78EE390E046
:1004A0002A813B81FC01318320838DE390E0298107
:1004B000FC012083E29AE19A00000F900F900F90C8
:1004C000DF91CF910895CF93DF9300D0CDB7DEB702
:1004D0009A83898389819A818130944010F080E0E9
:1004E0001FC000008CE390E0FC018081882F90E029
:1004F00082709927892BB1F78EE390E029813A81A8
:10050000FC01318320838CE390E02CE330E0F9019F
:1005100020812160FC0120838DE390E0FC0180813B
:100520000F900F90DF91CF910895CF93DF93CDB7C8
:10053000DEB763970FB6F894DEBF0FBECDBF6F87EF
:10054000788B898B9A8B4B8B8B890E94E50488234F
:1005500021F482E08093760067C01A8219825EC01F
:1005600089819A819C01220F331F220F331F220F92
:10057000331F8F859889A989BA8904C0B695A79534
:10058000979587952A95D2F7482F9E012D5F3F4F6B
:1005900089819A81820F931FFC0140838B89882F68
:1005A00090E09C0122953295307F3227207F3227C0
:1005B00044E050E089819A81BA01681B790BCB0134
:1005C000822B932BAC0189819A81880F991F9E0100
:1005D0002F5F3F4F820F931F0696FC01518340838C
:1005E00089819A81880F991F9E012F5F3F4F820F4B
:1005F000931F0696FC01408151819E012D5F3F4F64
:1006000089819A81820F931FFC018081BA010E9427
:10061000310289819A8101969A83898389819A819D
:1006200004970CF49DCF000063960FB6F894DEBFDC
:100630000FBECDBFDF91CF910895CF93DF93CDB79C
:10064000DEB72B970FB6F894DEBF0FBECDBF8B87FA
:100650001F82188619861A8619821A821B821C82AA
:100660001E821D8243C08B85882F90E09C012295BD
:100670003295307F3227207F322744E050E08D8151
:100680009E81BA01681B790BCB01822B932B0E94B0
:100690006302882F90E0A0E0B0E08F839887A9875D
:1006A000BA878D819E819C01220F331F220F331F39
:1006B000220F331F8F819885A985BA8504C0880FC2
:1006C000991FAA1FBB1F2A95D2F729813A814B8116
:1006D0005C81822B932BA42BB52B89839A83AB83CC
:1006E000BC838D819E8101969E838D838D819E81A9
:1006F00004970CF4B8CF89819A81AB81BC81BC018D
:10070000CD012B960FB6F894DEBF0FBECDBFDF91A3
:10071000CF910895CF93DF93CDB7DEB787E390E015
:100720002FEFFC01208388E390E0FC0110820000A1
:10073000DF91CF910895CF93DF93CDB7DEB780914E
:100740007700813099F484E390E025E9FC0120836F
:1007500085E390E02AE6FC01208385E390E02FEF1B
:10076000FC01208383E08093790012C084E390E051
:1007700020EFFC01208385E390E02FE0FC01208343
:1007800085E390E02FEFFC01208384E080937900E3
:100790000000DF91CF910895CF93DF93CDB7DEB7FF
:1007A00082E590E0FC01108283E590E023E530E0F3
:1007B000F90120812560FC0120838CE490E0FC019C
:1007C000118210828EE490E02EE430E0F901208165
:1007D0002560FC0120830000DF91CF910895CF9325
:1007E000DF9300D0CDB7DEB71092780019823FC0FA
:1007F00085E390E02981222F30E02E593F4FF90107
:100800002081FC0120838AE090E00E945A0083E36B
:1008100090E0FC018081809361008981882F90E0C5
:100820008E599F4FFC019081809161009817E1F0F3
:100830001A8217C08A81882F90E08A599F4FFC0145
:10084000908180916100981749F48A8180936000BB
:1008500081E0809378008091600010C08A818F5F72
:100860008A838A81803130F389818F5F8983809187
:1008700079009981981708F4BBCFB8CF0F900F90EB
:10088000DF91CF910895CF93DF93CDB7DEB78091FD
:100890007700813069F4000083E390E0FC018081FF
:1008A000882F90E08A7699278A369105A9F70BC0A0
:1008B000000083E390E0FC018081882F90E08F703E
:1008C00099270F97B1F70000DF91CF9108950F930B
:1008D0001F93CF93DF93CDB7DEB727970FB6F8946A
:1008E000DEBF0FBECDBF19821A821B821C821E8200
:1008F0001D824DC00E94EF038F838F818F3029F4BA
:1009000089819A81AB81BC8153C08F810E94F80498
:10091000882389F108E310E08F810E94DE01F8014D
:1009200080830E94430488E390E0FC011082898167
:100930009A81AB81BC81880F991FAA1FBB1F9C01A4
:10094000AD01220F331F441F551F220F331F441FB9
:10095000551F280F391F4A1F5B1F8F81882F90E07A
:10096000A0E0B0E0820F931FA41FB51F89839A8374
:10097000AB83BC8307C08D819E8101979E838D834D
:100980000E94B6018D819E8101969E838D838D810B
:100990009E8108970CF4AECF0E94EF038F3029F4AC
:1009A00089819A81AB81BC8103C080E090E0DC0149
:1009B000BC01CD0127960FB6F894DEBF0FBECDBFA8
:1009C000DF91CF911F910F910895CF93DF931F92E5
:1009D000CDB7DEB789838981882F90E00A97049785
:1009E00010F481E001C080E00F90DF91CF91089575
:1009F000CF93DF931F92CDB7DEB789838981882F8C
:100A000090E00A9710F481E001C080E00F90DF9140
:100A1000CF910895CF93DF931F92CDB7DEB71982A0
:100A200013C08CE090E00E945A0083E390E0FC0148
:100A30008081882F90E08F7099270F9711F480E0C4
:100A400007C089818F5F898389818F3F51F781E05A
:100A50000F90DF91CF910895CF93DF9300D000D016
:100A600000D0CDB7DEB70E94CC030E948A030E945B
:100A70009B034AE06EE471E68CEB90E00E949502E5
:100A80004BE060E371E48BEA90E00E9495024CE059
:100A900060E070E0CB010E9495024DE060E070E004
:100AA000CB010E94950219820E94EF038A838A81FA
:100AB0000E94E5048823C1F188E390E02A81FC01CB
:100AC00020830E94430488E390E0FC011082898126
:100AD000833038F50E946704DC01CB018B839C8353
:100AE000AD83BE838A810E941D039B01AC018B8173
:100AF0009C81AD81BE81281739074A075B0739F40D
:100B000084E690E00E945A000E94DF00CDCF84E688
:100B100090E00E945A000E94360189818F5F89838C
:100B2000C3CF0E941C02C0CF8A818E3051F40E9434
:100B30000A05882309F4B8CF0E948E010E94A805F7
:100B4000B3CF84E690E00E945A000E94B601ACCF79
:100B5000CF93DF9300D000D000D0CDB7DEB70E9496
:100B6000430419820E94EF038A838A810E94E5046C
:100B7000882309F444C088E390E02A81FC012083A3
:100B80000E94430488E390E0FC0110828981833055
:100B900098F50E946704DC01CB018B839C83AD83B5
:100BA000BE838A810E941D039B01AC018B819C81C5
:100BB000AD81BE81281739074A075B0799F484E69F
:100BC00090E00E945A000E94DF000E946704DC014E
:100BD000CB014A81BC01CD010E9495020E94DF0039
:100BE000198214C084E690E00E945A000E943601E7
:100BF00089818F5F8983B6CF0E941C0207C084E67B
:100C000090E00E945A000E94B601ACCF26960FB623
:100C1000F894DEBF0FBECDBFDF91CF910895EE0FE8
:0E0C2000FF1F0590F491E02D0994F894FFCF8A
:100C2E00FFFFEFDFBF7FD7EEDEBEEDDDBDEBDBBB43
:060C3E007E7D7B77E7B725
:00000001FF
