:100000000C943B000C9458000C9458000C9458002D
:100010000C9458000C9458000C9458000C94580000
:100020000C9458000C9458000C9458000C945800F0
:100030000C9458000C9458000C9458000C945800E0
:100040000C9458000C9458000C9458000C945800D0
:100050000C945800E901EB01ED01EF01F101F3010E
:10006000F501F701F901FB01FF010102030205029D
:1000700007020702FD0111241FBECFE5D8E0DEBF55
:10008000CDBF10E0A0E6B0E0E6EDFBE002C00590D9
:100090000D92A837B107D9F720E0A8E7B0E001C07A
:1000A0001D92AB37B207E1F70E94E7040C94E90513
:1000B0000C940000CF93DF9300D000D0CDB7DEB713
:1000C0009C838B8382E590E0FC0110828CE590E0BC
:1000D0002CE0FC01208388E590E022E0FC012083F5
:1000E0001A821982000088E590E0FC018081882F47
:1000F00090E082709927892BB1F382E590E0FC01B2
:10010000108288E590E022E0FC01208389819A81B9
:1001100001969A83898329813A818B819C81281752
:10012000390708F4DFCF00000F900F900F900F9069
:10013000DF91CF910895CF93DF9300D000D000D00E
:10014000CDB7DEB76B837C838D839E832B813C810F
:100150004D815E8188EE93E0DC010E94CF05DC01D9
:10016000CB018B839C83AD83BE8382E590E0FC0151
:1001700010828CE590E02CE0FC01208388E590E083
:1001800022E0FC0120831A821982000088E590E0B9
:10019000FC018081882F90E082709927892BB1F330
:1001A00082E590E0FC01108288E590E022E0FC010D
:1001B000208389819A8101969A83898389819A8192
:1001C0009C0140E050E08B819C81AD81BE8128176D
:1001D00039074A075B0708F4D8CF000026960FB608
:1001E000F894DEBF0FBECDBFDF91CF910895CF93BE
:1001F000DF9300D000D0CDB7DEB71A8219821BC0C2
:1002000088E390E029813A81220F331FA9014F5FD3
:100210005F4F21E030E002C0220F331F4A95E2F722
:10022000FC01208384E690E00E945A0089819A8133
:1002300001969A83898389819A8104970CF31C82A1
:100240001B821CC088E390E02B813C81220F331F6E
:1002500047E050E0421B530B21E030E002C0220F88
:10026000331F4A95E2F7FC01208384E690E00E9468
:100270005A008B819C8101969C838B838B819C810E
:10028000049704F388E390E0FC01108200000F90D3
:100290000F900F900F90DF91CF910895CF93DF9340
:1002A00000D000D0CDB7DEB71A82198219C088E31A
:1002B00090E029813A81A901440F551F21E030E0E7
:1002C00002C0220F331F4A95E2F7FC01208384E627
:1002D00090E00E945A0089819A8101969A838983CD
:1002E00089819A8104971CF31C821B821FC088E3BA
:1002F00090E044E050E02B813C81BA01621B730B1B
:100300009B01A901440F551F21E030E002C0220FDC
:10031000331F4A95E2F7FC01208384E690E00E94B7
:100320005A008B819C8101969C838B838B819C815D
:100330000497ECF288E390E0FC01108200000F903B
:100340000F900F900F90DF91CF910895CF93DF938F
:1003500000D0CDB7DEB71A82198216C088E390E0CC
:1003600025E5FC01208380E590E00E945A0088E3A7
:1003700090E0FC01108280E590E00E945A008981A3
:100380009A8101969A83898389819A81049734F3AB
:1003900000000F900F90DF91CF910895CF93DF93DE
:1003A0001F92CDB7DEB789838981882F90E0092E0F
:1003B000000CAA0BBB0B40E050E020E130E0841BB6
:1003C000950B2817390718F1865D9F4FFC010C9497
:1003D000C90580E01DC081E01BC082E019C084E037
:1003E00017C088E015C080E113C080E211C080E42E
:1003F0000FC080E80DC081E80BC080E109C083E038
:1004000007C08CE005C080E303C080EC01C080E041
:100410000F90DF91CF910895CF93DF93CDB7DEB7E3
:1004200088E390E0FC01108288E790E00E949B0046
:100430000000DF91CF910895CF93DF9300D01F92FA
:10044000CDB7DEB789837B836A838A819B818130C4
:10045000944020F083E0809378001AC000008CE381
:1004600090E0FC018081882F90E082709927892B91
:10047000B1F78EE390E02A813B81FC013183208338
:100480008DE390E02981FC012083E29AE19A00004B
:100490000F900F900F90DF91CF910895CF93DF933E
:1004A00000D0CDB7DEB79A83898389819A81813064
:1004B000944010F080E01FC000008CE390E0FC014D
:1004C0008081882F90E082709927892BB1F78EE385
:1004D00090E029813A81FC01318320838CE390E014
:1004E0002CE330E0F90120812160FC0120838DE3C1
:1004F00090E0FC0180810F900F90DF91CF910895E3
:10050000CF93DF93CDB7DEB763970FB6F894DEBF16
:100510000FBECDBF6F87788B898B9A8B4B8B8B8966
:100520000E94C204882321F482E08093780067C08F
:100530001A8219825EC089819A819C01220F331F21
:10054000220F331F220F331F8F859889A989BA89FB
:1005500004C0B695A795979587952A95D2F7482F09
:100560009E012D5F3F4F89819A81820F931FFC016D
:1005700040838B89882F90E09C0122953295307FB3
:100580003227207F322744E050E089819A81BA01E6
:10059000681B790BCB01822B932BAC0189819A814B
:1005A000880F991F9E012F5F3F4F820F931F069662
:1005B000FC015183408389819A81880F991F9E0194
:1005C0002F5F3F4F820F931F0696FC0140815181A0
:1005D0009E012D5F3F4F89819A81820F931FFC01FD
:1005E0008081BA010E941C0289819A8101969A83B6
:1005F000898389819A8104970CF49DCF00006396CA
:100600000FB6F894DEBF0FBECDBFDF91CF91089536
:10061000CF93DF93CDB7DEB72B970FB6F894DEBF3D
:100620000FBECDBF8B871F82188619861A86198246
:100630001A821B821C821E821D8243C08B85882FDA
:1006400090E09C0122953295307F3227207F32271F
:1006500044E050E08D819E81BA01681B790BCB018B
:10066000822B932B0E944E02882F90E0A0E0B0E0F6
:100670008F839887A987BA878D819E819C01220FDD
:10068000331F220F331F220F331F8F819885A985B7
:10069000BA8504C0880F991FAA1FBB1F2A95D2F7DD
:1006A00029813A814B815C81822B932BA42BB52B22
:1006B00089839A83AB83BC838D819E8101969E83BF
:1006C0008D838D819E8104970CF4B8CF89819A81A6
:1006D000AB81BC81BC01CD012B960FB6F894DEBF77
:1006E0000FBECDBFDF91CF910895CF93DF93CDB7EC
:1006F000DEB787E390E02FEFFC01208388E390E0F2
:10070000FC0110820000DF91CF910895CF93DF9319
:10071000CDB7DEB780916000813099F484E390E03A
:1007200025E9FC01208385E390E02AE6FC01208393
:1007300085E390E02FEFFC01208383E080937A0033
:1007400012C084E390E020EFFC01208385E390E079
:100750002FE0FC01208385E390E02FEFFC01208354
:1007600084E080937A000000DF91CF910895CF93C9
:10077000DF93CDB7DEB782E590E0FC01108283E520
:1007800090E023E530E0F90120812560FC01208321
:100790000000DF91CF910895CF93DF9300D0CDB7C4
:1007A000DEB71092790019823FC085E390E029817D
:1007B000222F30E02D593F4FF9012081FC01208389
:1007C0008AE090E00E945A0083E390E0FC0180817F
:1007D000809362008981882F90E08D599F4FFC01A2
:1007E0009081809162009817E1F01A8217C08A8187
:1007F000882F90E089599F4FFC0190818091620081
:10080000981749F48A818093610081E08093790090
:100810008091610010C08A818F5F8A838A818031D4
:1008200030F389818F5F898380917A00998198174D
:1008300008F4BBCFB8CF0F900F90DF91CF91089500
:10084000CF93DF93CDB7DEB780916000813069F43C
:10085000000083E390E0FC018081882F90E08A769D
:1008600099278A369105A9F70BC0000083E390E031
:10087000FC018081882F90E08F7099270F97B1F746
:100880000000DF91CF9108950F931F93CF93DF93D3
:10089000CDB7DEB727970FB6F894DEBF0FBECDBF3A
:1008A00019821A821B821C821E821D824DC00E94E8
:1008B000CC038F838F818F3029F489819A81AB811A
:1008C000BC8153C08F810E94D504882389F108E33D
:1008D00010E08F810E94CE01F80180830E942004E5
:1008E00088E390E0FC01108289819A81AB81BC8110
:1008F000880F991FAA1FBB1F9C01AD01220F331F38
:10090000441F551F220F331F441F551F280F391F27
:100910004A1F5B1F8F81882F90E0A0E0B0E0820F1C
:10092000931FA41FB51F89839A83AB83BC8307C021
:100930008D819E8101979E838D830E94A6018D816A
:100940009E8101969E838D838D819E8108970CF4F4
:10095000AECF0E94CC038F3029F489819A81AB817C
:10096000BC8103C080E090E0DC01BC01CD01279692
:100970000FB6F894DEBF0FBECDBFDF91CF911F91B0
:100980000F910895CF93DF931F92CDB7DEB7898380
:100990008981882F90E00A97049710F481E001C0C4
:1009A00080E00F90DF91CF910895CF93DF931F9256
:1009B000CDB7DEB789838981882F90E00A9710F43C
:1009C00081E001C080E00F90DF91CF910895CF9337
:1009D000DF93CDB7DEB727970FB6F894DEBF0FBE13
:1009E000CDBF0E94B7030E9475030E9486031A823E
:1009F000198253C01B820E94CC03282F30E08981CA
:100A00009A810A962817390771F527C00E94440475
:100A1000DC01CB018C839D83AE83BF838981865F9C
:100A20000E9408039B01AC018C819D81AE81BF8136
:100A3000281739074A075B0739F484E690E00E94DB
:100A40005A000E94F70009C084E690E00E945A0014
:100A50000E944E018B818F5F8B838B818330B0F23C
:100A60000E940C0215C00E94CC038E3059F485E020
:100A700090E00E949B000E94CC038E3049F40E94BB
:100A8000530506C084E690E00E945A000E944E0181
:100A900089819A8101969A83898389819A810497B1
:100AA0000CF4A8CFA4CF0F931F93CF93DF93CDB7B0
:100AB000DEB727970FB6F894DEBF0FBECDBF1A8200
:100AC000198256C01B820E94CC03282F30E08981F6
:100AD0009A810A962817390709F03FC038C00E944A
:100AE0004404DC01CB018C839D83AE83BF83898169
:100AF0009A810A960E9408039C01990F440B550B9A
:100B00008C819D81AE81BF81281739074A075B0719
:100B1000A9F484E690E00E945A000E94F7008981BF
:100B20009A818C01065F1F4F0E944404DC01CB01B7
:100B3000A801BC01CD010E94800209C084E690E0BA
:100B40000E945A000E944E018B818F5F8B838B81A4
:100B5000833028F20E940C0206C084E690E00E94D6
:100B60005A000E944E0189819A8101969A83898355
:100B700089819A8104970CF4A5CF000027960FB6BF
:100B8000F894DEBF0FBECDBFDF91CF911F910F91C3
:100B90000895EE0FFF1F0590F491E02D09940E9437
:100BA000DA05A59F900DB49F900DA49F800D911D17
:100BB00011240895A29FB001B39FC001A39F700D9F
:100BC000811D1124911DB29F700D811D1124911D55
:060BD0000895F894FFCF28
:100BD60001FFFFFBFEEF00F6F9FCEDBBBEAFDBDE6F
:080BE600CF00000000F3E7005E
:00000001FF
