:100000000C943B000C9458000C9458000C9458002D
:100010000C9458000C9458000C9458000C94580000
:100020000C9458000C9458000C9458000C945800F0
:100030000C9458000C9458000C9458000C945800E0
:100040000C9458000C9458000C9458000C945800D0
:100050000C9458005A025C025E0260026202640262
:10006000660268026A026C02700272027402760210
:10007000780278026E0211241FBECFE5D8E0DEBF01
:10008000CDBF10E0A0E6B0E0E8E1FEE002C00590E0
:100090000D92A437B107D9F720E0A4E7B0E001C082
:1000A0001D92A737B207E1F70E94BA050C940A0720
:1000B0000C940000CF93DF9300D000D0CDB7DEB713
:1000C0009C838B8382E590E0FC0110828CE590E0BC
:1000D0002CE0FC01208388E590E022E0FC012083F5
:1000E0001A821982000088E590E0FC018081882F47
:1000F00090E082709927892BB1F382E590E0FC01B2
:10010000108288E590E022E0FC01208389819A81B9
:1001100001969A83898329813A818B819C81281752
:10012000390708F4DFCF00000F900F900F900F9069
:10013000DF91CF910895CF93DF9300D000D0CDB75A
:10014000DEB79C838B838CE490E0FC0111821082EB
:100150008AE490E027EC3DE2FC013183208388E5CE
:1001600090E020E1FC0120831A821982000088E5DA
:1001700090E0FC018081882F90E080719927892B85
:10018000B1F38CE490E0FC011182108288E590E0EC
:1001900020E1FC01208389819A8101969A838983D9
:1001A00029813A818B819C812817390708F4DECF99
:1001B00000000F900F900F900F90DF91CF91089556
:1001C000CF93DF9300D000D0CDB7DEB71A8219826B
:1001D0001BC088E390E029813A81220F331FA901D7
:1001E0004F5F5F4F21E030E002C0220F331F4A957E
:1001F000E2F7FC01208384E690E00E945A008981A6
:100200009A8101969A83898389819A8104970CF354
:100210001C821B821CC088E390E02B813C81220F52
:10022000331F47E050E0421B530B21E030E002C097
:10023000220F331F4A95E2F7FC01208384E690E009
:100240000E945A008B819C8101969C838B838B81B9
:100250009C81049704F388E390E0FC01108284E61B
:1002600090E00E945A0088E390E02AEAFC01208393
:1002700000000F900F900F900F90DF91CF91089595
:10028000CF93DF9300D000D0CDB7DEB71A821982AA
:100290001BC088E390E029813A81220F331FA90116
:1002A0004F5F5F4F21E030E002C0220F331F4A95BD
:1002B000E2F7FC01208384E690E00E945A008981E5
:1002C0009A8101969A83898389819A8104970CF394
:1002D0001C821B821CC088E390E02B813C81220F92
:1002E000331F47E050E0421B530B21E030E002C0D7
:1002F000220F331F4A95E2F7FC01208384E690E049
:100300000E945A008B819C8101969C838B838B81F8
:100310009C81049704F388E390E0FC0110820000C4
:100320000F900F900F900F90DF91CF910895CF9382
:10033000DF9300D000D0CDB7DEB71A82198219C082
:1003400088E390E029813A81A901440F551F21E0FB
:1003500030E002C0220F331F4A95E2F7FC012083F0
:1003600084E690E00E945A0089819A8101969A83DE
:10037000898389819A8104971CF31C821B821FC088
:1003800088E390E044E050E02B813C81BA01621B9D
:10039000730B9B01A901440F551F21E030E002C0FF
:1003A000220F331F4A95E2F7FC01208384E690E098
:1003B0000E945A008B819C8101969C838B838B8148
:1003C0009C810597ECF288E390E0FC01108200002C
:1003D0000F900F900F900F90DF91CF910895CF93D2
:1003E000DF9300D0CDB7DEB71A82198216C088E33A
:1003F00090E02FEFFC01208384E690E00E945A00F9
:1004000088E390E0FC01108284E690E00E945A00AC
:1004100089819A8101969A83898389819A81069735
:1004200034F300000F900F90DF91CF910895CF9398
:10043000DF9300D0CDB7DEB71A82198216C088E3E9
:1004400090E025E5FC01208380E590E00E945A00C1
:1004500088E390E0FC01108280E590E00E945A0061
:1004600089819A8101969A83898389819A810497E7
:1004700034F300000F900F90DF91CF910895CF9348
:10048000DF931F92CDB7DEB789838981882F90E0F3
:10049000092E000CAA0BBB0B40E050E020E130E03D
:1004A000841B950B2817390718F1865D9F4FFC01B7
:1004B0000C94040780E01DC081E01BC082E019C0DD
:1004C00084E017C088E015C080E113C080E211C04D
:1004D00080E40FC080E80DC081E80BC080E109C056
:1004E00083E007C08CE005C080E303C080EC01C05E
:1004F00080E00F90DF91CF910895CF93DF93CDB738
:10050000DEB788E390E025E5FC01208388E790E0F2
:100510000E949B0088E390E0FC0110820000DF91C4
:10052000CF910895CF93DF931F92CDB7DEB7898324
:100530008981882F90E08B30910591F08C30910566
:100540001CF40A9739F01EC08C30910579F00D9794
:1005500099F018C088E390E023E0FC01208312C0EA
:1005600088E390E02CE0FC0120830CC088E390E05D
:1005700020E3FC01208306C088E390E020ECFC012E
:10058000208300000F90DF91CF910895CF93DF93E8
:1005900000D01F92CDB7DEB789837B836A838A81BF
:1005A0009B8181309440D8F400008CE390E0FC0102
:1005B0008081882F90E082709927892BB1F78EE394
:1005C00090E02A813B81FC01318320838DE390E020
:1005D0002981FC012083E29AE19A000001C0000019
:1005E0000F900F900F90DF91CF910895CF93DF93ED
:1005F00000D0CDB7DEB79A83898389819A81813013
:10060000944010F080E01FC000008CE390E0FC01FB
:100610008081882F90E082709927892BB1F78EE333
:1006200090E029813A81FC01318320838CE390E0C2
:100630002CE330E0F90120812160FC0120838DE36F
:1006400090E0FC0180810F900F90DF91CF91089591
:10065000CF93DF93CDB7DEB729970FB6F894DEBFFF
:100660000FBECDBF6D837E838F8398874987898531
:100670000E944005882321F482E0809374003AC0F0
:100680001A82198232C089819A819C01220F331FFC
:10069000220F331F220F331F8D819E81AF81B885BA
:1006A00004C0B695A795979587952A95D2F78B8321
:1006B0008985882F90E082959295907F9827807FFA
:1006C0009827282F898194E0392F381B832F822B7C
:1006D0008C838C81882F90E0BC018B810E94C602A4
:1006E00089819A8101969A83898389819A81049765
:1006F00054F2000029960FB6F894DEBF0FBECDBFAE
:10070000DF91CF910895CF93DF93CDB7DEB72997CF
:100710000FB6F894DEBF0FBECDBF898718861F8243
:1007200019821A821B821C821E821D823EC089850C
:10073000882F90E09C0122953295307F3227207FD0
:10074000322744E050E08D819E81BA01681B790B0D
:10075000CB01822B932B0E94F602882F90E0988782
:100760008F838D819E819C01220F331F220F331FA7
:10077000220F331F8F81988502C0880F991F2A95F9
:10078000E2F7CC01A0E0B0E029813A814B815C81A5
:10079000822B932BA42BB52B89839A83AB83BC83A9
:1007A0008D819E8101969E838D838D819E8104978C
:1007B0000CF4BDCF89819A81AB81BC81BC01CD0194
:1007C00029960FB6F894DEBF0FBECDBFDF91CF9153
:1007D0000895CF93DF93CDB7DEB787E390E02FEF97
:1007E000FC01208388E390E0FC0110820000DF918F
:1007F000CF910895CF93DF93CDB7DEB78091750089
:10080000813099F484E390E025E9FC01208385E3BD
:1008100090E02AE6FC01208385E390E02FEFFC01C5
:10082000208383E08093760012C084E390E020EF81
:10083000FC01208385E390E02FE0FC01208385E329
:1008400090E02FEFFC01208384E08093760000008D
:10085000DF91CF910895CF93DF93CDB7DEB782E5D7
:1008600090E0FC01108283E590E023E530E0F9019F
:1008700020812560FC0120838CE490E0FC01118242
:1008800010828EE490E02EE430E0F90120812560B2
:10089000FC0120830000DF91CF910895CF93DF9377
:1008A00000D000D0CDB7DEB78FEF8B838FEF8C8376
:1008B000198237C085E390E02981222F30E0205A49
:1008C0003F4FF9012081FC0120838AE090E00E94E3
:1008D0005A0083E390E0FC0180818C838981882F1A
:1008E00090E0805A9F4FFC0190818C819817B1F065
:1008F0001A8211C08A81882F90E08C599F4FFC0189
:1009000090818C81981721F48A818B838B810FC011
:100910008A818F5F8A838A81803160F389818F5FCA
:100920008983809176009981981720F2C1CF0F902A
:100930000F900F900F90DF91CF910895CF93DF9399
:10094000CDB7DEB780917500813069F4000083E394
:1009500090E0FC018081882F90E08A7699278A3682
:100960009105A9F70BC0000083E390E0FC018081B2
:10097000882F90E08F7099270F97B1F70000DF91D3
:10098000CF9108950F931F93CF93DF93CDB7DEB729
:1009900027970FB6F894DEBF0FBECDBF19821A821B
:1009A0001B821C821E821D824DC00E944E048F83BA
:1009B0008F818F3029F489819A81AB81BC8153C0AA
:1009C0008F810E945305882389F108E310E08F810D
:1009D0000E943F02F80180830E949E0488E390E019
:1009E000FC01108289819A81AB81BC81880F991F9B
:1009F000AA1FBB1F9C01AD01220F331F441F551FAF
:100A0000220F331F441F551F280F391F4A1F5B1F1A
:100A10008F81882F90E0A0E0B0E0820F931FA41F89
:100A2000B51F89839A83AB83BC8307C08D819E8168
:100A300001979E838D830E9417028D819E8101966E
:100A40009E838D838D819E8108970CF4AECF0E948A
:100A50004E048F3029F489819A81AB81BC8103C017
:100A600080E090E0DC01BC01CD0127960FB6F89440
:100A7000DEBF0FBECDBFDF91CF911F910F910895C3
:100A8000CF93DF931F92CDB7DEB789838981882FFB
:100A900090E00A97049710F481E001C080E00F9085
:100AA000DF91CF910895CF93DF931F92CDB7DEB73B
:100AB00089838981882F90E00A9710F481E001C032
:100AC00080E00F90DF91CF910895CF93DF931F9235
:100AD000CDB7DEB7198213C08CE090E00E945A00B7
:100AE00083E390E0FC018081882F90E08F7099274C
:100AF0000F9711F480E007C089818F5F8983898116
:100B00008F3F51F781E00F90DF91CF910895CF9300
:100B1000DF9300D000D01F92CDB7DEB76A837B830E
:100B20008C839D83198215C08A819B81AC81BD8194
:100B30002AE030E040E050E0BC01CD010E94E20636
:100B4000DA01C9018A839B83AC83BD8389818F5F6E
:100B500089838A819B81AC81BD81892B8A2B8B2BD8
:100B600019F789810F900F900F900F900F90DF91E0
:100B7000CF910895CF93DF93CDB7DEB727970FB608
:100B8000F894DEBF0FBECDBF0E942B040E94E90384
:100B90000E94FA0319821A820E944E048B839A8162
:100BA0008B81981709F019828B810E944005882358
:100BB00009F444C08B810E9492020E949E0488E343
:100BC00090E0FC0110828B818A830E94C204DC01C8
:100BD000CB018C839D83AE83BF838B810E94830373
:100BE0009B01AC018C819D81AE81BF8128173907A3
:100BF0004A075B0799F484E690E00E945A000E943D
:100C0000E00000000E944E048F30E1F70E949E0435
:100C100088E390E0FC0110821982BECF84E690E068
:100C20000E945A000E94970189818F5F8983898180
:100C3000833008F4B1CF0E947D02AECF8B818E301D
:100C4000C9F488E390E02FEFFC0120830E94650542
:100C5000882349F00E94EF0188E390E02FEFFC0128
:100C600020830E9441060E949E0488E390E0FC01DC
:100C7000108292CF84E690E00E945A000E941702F0
:100C80008BCFCF93DF93CDB7DEB72B970FB6F8940A
:100C9000DEBF0FBECDBF0E949E0419820E944E048B
:100CA0008A838A810E944005882309F476C08A815C
:100CB0000E9492020E949E0488E390E02FEFFC01C4
:100CC00020830E94C204DC01CB018B839C83AD8313
:100CD000BE838A810E9483039B01AC018B819C812E
:100CE000AD81BE81281739074A075B0709F03EC06E
:100CF00084E690E00E945A000E9440010E949E04F7
:100D000088E390E02FEFFC0120830E94C204DC0105
:100D1000CB018F839887A987BA878F819885A9850A
:100D2000BA85BC01CD010E9487058B878B858630F3
:100D300008F4B4CF8B85893008F0B0CF8F819885C7
:100D4000A985BA854A81BC01CD010E9428030E9471
:100D5000E00000000E944E048F30E1F70E949E04E4
:100D600088E390E0FC011082198223C084E690E0C1
:100D70000E945A000E9497010E949E0488E390E01E
:100D80002FEFFC01208389818F5F898389818330E4
:100D900008F484CF0E947D020CC084E690E00E949B
:100DA0005A000E94170288E390E02FEFFC01208395
:100DB00075CF2B960FB6F894DEBF0FBECDBFDF9177
:100DC000CF910895A1E21A2EAA1BBB1BFD010DC0F5
:100DD000AA1FBB1FEE1FFF1FA217B307E407F507EB
:100DE00020F0A21BB30BE40BF50B661F771F881FC7
:100DF000991F1A9469F760957095809590959B015D
:100E0000AC01BD01CF010895EE0FFF1F0590F491D5
:080E1000E02D0994F894FFCFD6
:100E1800EFDFBF7FD7EEDEBEEDDDBDEBDBBB7E7D5A
:040E28007B77E7B736
:00000001FF
