S01C00004469676974616C5F536166655F50726F6A6563742E7372656336
S11300000C942A000C9447000C9447000C9447006D
S11300100C9447000C9447000C9447000C94470040
S11300200C9447000C9447000C9447000C94470030
S11300300C9447000C9447000C9447000C94470020
S11300400C9447000C9447000C9447000C94470010
S11300500C94470011241FBECFE5D8E0DEBFCDBF0E
S113006010E0A0E6B0E0E0E4F1E002C005900D92FB
S1130070A636B107D9F720E0A6E6B0E001C01D928C
S1130080A736B207E1F70E9486000C949E000C94F8
S11300900000613094E0790720F083E080936600EB
S11300A00895E0916400F0916500908191FDFDCF89
S11300B0E0916200F091630071836083E0916000DD
S11300C0F09161008083E29AE19A08959C012130C5
S11300D084E03807D0F4E0916400F09165009081E9
S11300E091FDFDCFE0916200F091630031832083A4
S11300F0E0916400F0916500808181608083E091EB
S11301006000F091610080810895089561E070E0DD
S113011081E00E94490062E070E082E00E944900B0
S113012061E070E08AEA0E94490082E090E00E9467
S1130130660081E090E00E946600E8CFF894FFCF6B
S10901403D003E003C00FE
S9030000FC
