S01C00004469676974616C5F536166655F50726F6A6563742E7372656336
S11300000C942A000C9447000C9447000C9447006D
S11300100C9447000C9447000C9447000C94470040
S11300200C9447000C9447000C9447000C94470030
S11300300C9447000C9447000C9447000C94470020
S11300400C9447000C9447000C9447000C94470010
S11300500C94470011241FBECFE5D8E0DEBFCDBF0E
S113006010E0A0E6B0E0ECEFF7E002C005900D92DE
S1130070A637B107D9F720E0A6E7B0E001C01D928A
S1130080AA37B207E1F70E94C5030C94FC030C9451
S11300900000CF93DF9300D000D0CDB7DEB79C83B0
S11300A08B8382E590E0FC0110828CE590E026E7EA
S11300B0FC01208388E590E022E0FC0120831A8281
S11300C01982000088E590E0FC018081882F90E08F
S11300D082709927892BB1F382E590E0FC011082AC
S11300E088E590E022E0FC01208389819A810196D1
S11300F09A83898329813A818B819C8128173907C6
S113010008F4DFCF00000F900F900F900F90DF9155
S1130110CF910895CF93DF9300D000D0CDB7DEB751
S11301201A8219821BC088E390E029813A81220F48
S1130130331FA9014F5F5F4F21E030E002C0220F5F
S1130140331F4A95E2F7FC0120838AE090E00E9485
S1130150490089819A8101969A83898389819A8148
S113016004970CF31C821B821CC088E390E02B8153
S11301703C81220F331F47E050E0421B530B21E028
S113018030E002C0220F331F4A95E2F7FC012083BE
S11301908AE090E00E9449008B819C8101969C83B7
S11301A08B838B819C81049704F388E390E0FC01AA
S11301B0108200000F900F900F900F90DF91CF915D
S11301C00895CF93DF9300D000D0CDB7DEB71A8265
S11301D0198219C088E390E029813A81A901440F6A
S11301E0551F21E030E002C0220F331F4A95E2F789
S11301F0FC0120838AE090E00E94490089819A8171
S113020001969A83898389819A8104971CF31C82BD
S11302101B821FC088E390E044E050E02B813C81C6
S1130220BA01621B730B9B01A901440F551F21E006
S113023030E002C0220F331F4A95E2F7FC0120830D
S11302408AE090E00E9449008B819C8101969C8306
S11302508B838B819C810497ECF288E390E0FC0112
S1130260108200000F900F900F900F90DF91CF91AC
S11302700895CF93DF9300D01F92CDB7DEB7898363
S11302807B836A838A819B818130944020F083E060
S1130290809376001AC000008CE390E0FC0180811A
S11302A0882F90E082709927892BB1F78EE390E034
S11302B02A813B81FC01318320838DE390E02981F5
S11302C0FC012083E29AE19A00000F900F900F90B6
S11302D0DF91CF910895CF93DF9300D0CDB7DEB7F0
S11302E09A83898389819A818130944010F080E0D7
S11302F01FC000008CE390E0FC018081882F90E017
S113030082709927892BB1F78EE390E029813A8195
S1130310FC01318320838CE390E02CE330E0F9018D
S113032020812160FC0120838DE390E0FC01808129
S11303300F900F90DF91CF910895CF93DF93CDB7B6
S1130340DEB763970FB6F894DEBF0FBECDBF6F87DD
S1130350788B898B9A8B4B8B8B89882F90E00A97AB
S1130360049708F069C000001A8219825EC089816E
S11303709A819C01220F331F220F331F220F331F38
S11303808F859889A989BA8904C0B695A795979548
S113039087952A95D2F7482F9E012D5F3F4F89817B
S11303A09A81820F931FFC0140838B89882F90E0F0
S11303B09C0122953295307F3227207F322744E0FA
S11303C050E089819A81BA01681B790BCB01822B99
S11303D0932BAC0189819A81880F991F9E012F5F0D
S11303E03F4F820F931F0696FC01518340838981FE
S11303F09A81880F991F9E012F5F3F4F820F931F91
S11304000696FC01408151819E012D5F3F4F8981F9
S11304109A81820F931FFC018081BA010E943901E5
S113042089819A8101969A83898389819A81049723
S11304300CF49DCF000001C0000063960FB6F89441
S1130440DEBF0FBECDBFDF91CF910895CF93DF9371
S1130450CDB7DEB72B970FB6F894DEBF0FBECDBF76
S11304608B871F82188619861A8619821A821B8224
S11304701C821E821D8243C08B85882F90E09C01C4
S113048022953295307F3227207F322744E050E096
S11304908D819E81BA01681B790BCB01822B932B32
S11304A00E946B01882F90E0A0E0B0E08F839887D2
S11304B0A987BA878D819E819C01220F331F220F49
S11304C0331F220F331F8F819885A985BA8504C0F5
S11304D0880F991FAA1FBB1F2A95D2F729813A8139
S11304E04B815C81822B932BA42BB52B89839A831C
S11304F0AB83BC838D819E8101969E838D838D8188
S11305009E8104970CF4B8CF89819A81AB81BC8118
S1130510BC01CD012B960FB6F894DEBF0FBECDBF44
S1130520DF91CF910895CF93DF93CDB7DEB787E303
S113053090E02FEFFC01208388E390E0FC0110821F
S11305400000DF91CF910895CF93DF93CDB7DEB74D
S113055080917700813099F484E390E025E9FC01EF
S1130560208385E390E02AE6FC01208385E390E084
S11305702FEFFC01208383E08093790012C084E391
S113058090E020EFFC01208385E390E02FE0FC0164
S1130590208385E390E02FEFFC01208384E08093A7
S11305A079000000DF91CF910895CF93DF93CDB709
S11305B0DEB782E590E0FC01108283E590E023E55C
S11305C030E0F90120812560FC0120830000DF91E7
S11305D0CF910895CF93DF9300D0CDB7DEB71092BB
S11305E0780019823FC085E390E02981222F30E012
S11305F02E593F4FF9012081FC01208381E090E0D6
S11306000E94490083E390E0FC01808180936100B3
S11306108981882F90E08E599F4FFC0190818091B1
S113062061009817E1F01A8217C08A81882F90E040
S11306308A599F4FFC01908180916100981749F479
S11306408A818093600081E08093780080916000CB
S113065010C08A818F5F8A838A81803130F38981D7
S11306608F5F8983809179009981981708F4BBCFB3
S1130670B8CF0F900F90DF91CF910895CF93DF9370
S1130680CDB7DEB780917700813069F4000083E351
S113069090E0FC018081882F90E08A7699278A3641
S11306A09105A9F70BC0000083E390E0FC01808171
S11306B0882F90E08F7099270F97B1F70000DF9192
S11306C0CF910895CF93DF93CDB7DEB727970FB6B9
S11306D0F894DEBF0FBECDBF19821A821B821C8222
S11306E01E821D823EC00E94EA028F838F818F305A
S11306F029F489819A81AB81BC813CC088E390E074
S11307002F81FC0120830E943E0388E390E0FC01DA
S1130710108289819A81AB81BC81880F991FAA1F9D
S1130720BB1F9C01AD01220F331F441F551F220F15
S1130730331F441F551F280F391F4A1F5B1F8F810A
S1130740882F90E0A0E0B0E0820F931FA41FB51F94
S113075089839A83AB83BC838D819E8101969E831A
S11307608D838D819E8108970CF4BDCF89819A81F8
S1130770AB81BC81BC01CD0127960FB6F894DEBFD6
S11307800FBECDBFDF91CF910895CF93DF9300D0FB
S113079000D0CDB7DEB70E94D5020E9493020E941A
S11307A0A4024AE06EE471E68CEB90E00E949D01A5
S11307B00E946203DC01CB0189839A83AB83BC83EF
S11307C08AE00E9426029B01AC0189819A81AB8157
S11307D0BC81281739074A075B0739F48AE090E09F
S11307E00E9449000E948A00E3CF8AE090E00E94C0
S10F07F049000E94E100DCCFF894FFCF28
S11307FCFFFFEFDFBF7FD7EEDEBEEDDDBDEBDBBB76
S109080C7E7D7B77E7B757
S9030000FC
