:020000020000FC
:1000000010C0189518951895189518951895189565
:100010001895189518951895189518951895189578
:1000200018950FED0DBF0E941A000E9425000E9436
:100030009300FBCF0FEF07BB00E008BB00EF04BB52
:100040000FE005BB0FEF05BB08950FEE05BB0E9447
:10005000950003B30F3EA1F00E3E19F401E011E04C
:1000600008950D3E19F404E018E008950B3E19F4CC
:1000700007E010E40895073E19F400EF10EF08952B
:100080000FED05BB0E94950003B30F3DA1F00E3D9F
:1000900019F402E012E008950D3D19F405E010E1B5
:1000A00008950B3D19F408E010E80895073D19F490
:1000B00000E010E008950FEB05BB0E94950003B32C
:1000C0000F3BA1F00E3B19F403E014E008950D3B43
:1000D00019F406E010E208950B3B19F409E011E869
:1000E0000895073B19F40FE01FE008950FE705BBE3
:1000F0000E94950003B30F37A1F00E3719F40AE000
:1001000013E008950D3719F40BE01CE008950B3748
:1001100019F40CE010E30895073719F40DE010EC22
:10012000089593CF089518BB08950F931F930F92CE
:100130000024002711270A950011FDCF00271A95EA
:0C0140001011F9CF0F901F910F9108953E
:00000001FF
