:020000020000FC
:1000000010C0189518951895189518951895189565
:100010001895189518951895189518951895189578
:1000200018950FED0DBF0E94210028EC0AEA0E94EE
:10003000A2000E94A40000E00E94A2000E94A4006E
:10004000F5CF0FEF07BB00E008BB00EF04BB0FE0EC
:1000500005BB0FEF05BB05E003BF05E00EBD08952E
:100060000FEE05BB22E30E94A40003B30F3EA1F0F4
:100070000E3E19F401E008BB08950D3E19F404E0AA
:1000800008BB08950B3E19F407E008BB0895073E2E
:1000900019F400EF08BB08950FED05BB22E30E94A1
:1000A000A40003B30F3DA1F00E3D19F402E008BB1C
:1000B00008950D3D19F405E008BB08950B3D19F4B2
:1000C00008E008BB0895073D19F400E008BB089557
:1000D0000FEB05BB22E30E94A40003B30F3B01F228
:1000E0000E3B19F403E008BB08950D3B19F406E03C
:1000F00008BB08950B3B19F409E008BB0895073BC2
:1001000019F40FE008BB08950FE705BB22E30E9436
:10011000A40003B30F37A1F00E3719F40AE008BBAF
:1001200008950D3719F40BE008BB08950B3719F447
:100130000CE008BB0895073E19F40DE008BB0895D4
:100140008FCF089508BB08950F931F933F933327D4
:1001500000E002BF0CE00CBF02E008BF08B702706D
:100160000230E1F700E002BF33953217A8F33F9168
:100170001F910F9108950F931F933F93002711270D
:100180000DBD0CBD07EC1DE21BBD0ABD332700E110
:1001900008BF08B700710031E1F7002711271DBD26
:1001A0000CBD3395321798F33F911F910F9108952D
:00000001FF
