:020000020000FC
:1000000010C0189518951895189518951895189565
:100010001895189518951895189518951895189578
:1000200018950FED0DBF0E94200028EC0E942F00B4
:100030000E949C000E94960060E00E949C00F6CF07
:100040000FEF07BB00E008BB00EF04BB0FE005BBF0
:100050000FEF05BB05E003BF05E00EBD08950FEEF1
:1000600005BB22E30E949E0003B30F3E81F00E3ECB
:1000700011F461E008950D3E11F468E008950B3E1F
:1000800011F460E40895073E11F46FEF08950FED49
:1000900005BB22E30E949E0003B30F3D81F00E3D9D
:1000A00011F462E008950D3D11F460E108950B3DF7
:1000B00011F460E80895073D11F460E008950FEB36
:1000C00005BB22E30E949E0003B30F3B81F00E3B71
:1000D00011F464E008950D3B11F460E208950B3BC8
:1000E00011F461E80895073B11F46FE008950FE7FC
:1000F00005BB22E30E949E0003B30F3781F00E3749
:1001000011F463E008950D3711F46CE008950B3796
:1001100011F460E30895073711F460EC08959FCF60
:1001200008950F911F911F910F9108950F9303B39D
:100130000F700F30E1F70F9168BB08950F931F9375
:100140003F93332700E002BF0CE00CBF02E008BF82
:1001500008B702700230E1F700E002BF33953217B2
:10016000A8F33F911F910F9108950F931F933F9311
:10017000002711270DBD0CBD07EC1DE21BBD0ABDFC
:10018000332700E108BF08B700710031E1F700270D
:1001900011271DBD0CBD3395321798F33F911F9168
:0401A0000F9108951E
:00000001FF
